{
  "address": "0x2847D076Ab820301bA46087419e173afa453118b",
  "abi": [
    {
      "inputs": [
        {
          "internalType": "address",
          "name": "_aiAgent",
          "type": "address"
        }
      ],
      "stateMutability": "nonpayable",
      "type": "constructor"
    },
    {
      "anonymous": false,
      "inputs": [
        {
          "indexed": false,
          "internalType": "uint256",
          "name": "id",
          "type": "uint256"
        },
        {
          "indexed": false,
          "internalType": "address",
          "name": "donor",
          "type": "address"
        },
        {
          "indexed": false,
          "internalType": "uint256",
          "name": "amount",
          "type": "uint256"
        }
      ],
      "name": "DonationReceived",
      "type": "event"
    },
    {
      "anonymous": false,
      "inputs": [
        {
          "indexed": false,
          "internalType": "uint256",
          "name": "id",
          "type": "uint256"
        }
      ],
      "name": "ProjectApproved",
      "type": "event"
    },
    {
      "anonymous": false,
      "inputs": [
        {
          "indexed": false,
          "internalType": "uint256",
          "name": "id",
          "type": "uint256"
        },
        {
          "indexed": false,
          "internalType": "address",
          "name": "owner",
          "type": "address"
        }
      ],
      "name": "ProjectCompleted",
      "type": "event"
    },
    {
      "anonymous": false,
      "inputs": [
        {
          "indexed": false,
          "internalType": "uint256",
          "name": "id",
          "type": "uint256"
        },
        {
          "indexed": false,
          "internalType": "string",
          "name": "name",
          "type": "string"
        },
        {
          "indexed": false,
          "internalType": "address",
          "name": "owner",
          "type": "address"
        }
      ],
      "name": "ProjectCreated",
      "type": "event"
    },
    {
      "inputs": [],
      "name": "aiAgent",
      "outputs": [
        {
          "internalType": "address",
          "name": "",
          "type": "address"
        }
      ],
      "stateMutability": "view",
      "type": "function"
    },
    {
      "inputs": [
        {
          "internalType": "uint256",
          "name": "_id",
          "type": "uint256"
        }
      ],
      "name": "approveProject",
      "outputs": [],
      "stateMutability": "nonpayable",
      "type": "function"
    },
    {
      "inputs": [
        {
          "internalType": "string",
          "name": "_name",
          "type": "string"
        },
        {
          "internalType": "uint256",
          "name": "_requestedAmount",
          "type": "uint256"
        }
      ],
      "name": "createProject",
      "outputs": [],
      "stateMutability": "nonpayable",
      "type": "function"
    },
    {
      "inputs": [
        {
          "internalType": "uint256",
          "name": "_id",
          "type": "uint256"
        }
      ],
      "name": "donate",
      "outputs": [],
      "stateMutability": "payable",
      "type": "function"
    },
    {
      "inputs": [
        {
          "internalType": "address",
          "name": "",
          "type": "address"
        }
      ],
      "name": "donations",
      "outputs": [
        {
          "internalType": "uint256",
          "name": "",
          "type": "uint256"
        }
      ],
      "stateMutability": "view",
      "type": "function"
    },
    {
      "inputs": [
        {
          "internalType": "uint256",
          "name": "",
          "type": "uint256"
        }
      ],
      "name": "projects",
      "outputs": [
        {
          "internalType": "string",
          "name": "name",
          "type": "string"
        },
        {
          "internalType": "address",
          "name": "owner",
          "type": "address"
        },
        {
          "internalType": "uint256",
          "name": "requestedAmount",
          "type": "uint256"
        },
        {
          "internalType": "uint256",
          "name": "raisedAmount",
          "type": "uint256"
        },
        {
          "internalType": "bool",
          "name": "approved",
          "type": "bool"
        },
        {
          "internalType": "bool",
          "name": "completed",
          "type": "bool"
        }
      ],
      "stateMutability": "view",
      "type": "function"
    },
    {
      "inputs": [
        {
          "internalType": "uint256",
          "name": "_id",
          "type": "uint256"
        }
      ],
      "name": "withdrawFunds",
      "outputs": [],
      "stateMutability": "nonpayable",
      "type": "function"
    }
  ],
  "transactionHash": "0xe3a36de59023368f8e67c79f971d64d142e409bb77b021781238def4c950ec92",
  "args": [
    "0x5829413fB7C3843e374B0fAd646b4955d511309c"
  ],
  "numDeployments": 1,
  "solcInputHash": "4783962cae263c62ede3a85c8456576e",
  "bytecode": "0x608060405234801561001057600080fd5b50604051610d03380380610d0383398101604081905261002f91610054565b600080546001600160a01b0319166001600160a01b0392909216919091179055610084565b60006020828403121561006657600080fd5b81516001600160a01b038116811461007d57600080fd5b9392505050565b610c70806100936000396000f3fe6080604052600436106100705760003560e01c8063a6d5b7321161004e578063a6d5b732146100f2578063cc6cb19a1461012a578063f14faf6f14610165578063fc69d8361461017857600080fd5b8063107046bd14610075578063155dd5ee146100b057806391754a5d146100d2575b600080fd5b34801561008157600080fd5b50610095610090366004610895565b610198565b6040516100a7969594939291906108f4565b60405180910390f35b3480156100bc57600080fd5b506100d06100cb366004610895565b61027d565b005b3480156100de57600080fd5b506100d06100ed366004610953565b61050c565b3480156100fe57600080fd5b50600054610112906001600160a01b031681565b6040516001600160a01b0390911681526020016100a7565b34801561013657600080fd5b50610157610145366004610a08565b60026020526000908152604090205481565b6040519081526020016100a7565b6100d0610173366004610895565b610639565b34801561018457600080fd5b506100d0610193366004610895565b6107b3565b600181815481106101a857600080fd5b90600052602060002090600502016000915090508060000180546101cb90610a38565b80601f01602080910402602001604051908101604052809291908181526020018280546101f790610a38565b80156102445780601f1061021957610100808354040283529160200191610244565b820191906000526020600020905b81548152906001019060200180831161022757829003601f168201915b5050505060018301546002840154600385015460049095015493946001600160a01b039092169390925060ff8082169161010090041686565b60015481106102a75760405162461bcd60e51b815260040161029e90610a72565b60405180910390fd5b600181815481106102ba576102ba610aa2565b60009182526020909120600590910201600101546001600160a01b031633146103165760405162461bcd60e51b815260206004820152600e60248201526d139bdd08185d5d1a1bdc9a5e995960921b604482015260640161029e565b6001818154811061032957610329610aa2565b9060005260206000209060050201600201546001828154811061034e5761034e610aa2565b90600052602060002090600502016003015410156103a55760405162461bcd60e51b8152602060048201526014602482015273119d5b991a5b99c819dbd85b081b9bdd081b595d60621b604482015260640161029e565b600181815481106103b8576103b8610aa2565b906000526020600020906005020160040160019054906101000a900460ff16156104245760405162461bcd60e51b815260206004820152601760248201527f46756e647320616c72656164792077697468647261776e000000000000000000604482015260640161029e565b336001600160a01b03166108fc6001838154811061044457610444610aa2565b9060005260206000209060050201600301549081150290604051600060405180830381858888f19350505050158015610481573d6000803e3d6000fd5b50600180828154811061049657610496610aa2565b906000526020600020906005020160040160016101000a81548160ff0219169083151502179055507f19d564091d6e4d30539008c3982bbd535d6b78c1ee8fde8de41dbb21a7b6f6e381336040516105019291909182526001600160a01b0316602082015260400190565b60405180910390a150565b6040805160c0810182528381523360208201529081018290526000606082018190526080820181905260a082018190526001805480820182559152815160059091027fb10e2d527612073b26eecdfd717e6a320cf44b4afac2b0732d9fcbe2b7fa0cf60190819061057d9082610b07565b506020820151600182810180546001600160a01b0319166001600160a01b0390931692909217909155604083015160028301556060830151600383015560808301516004909201805460a09094015161ffff1990941692151561ff001916929092176101009315159390930292909217905580547fc0c54fed07481d0998e1446b2c13759606bf4f26b78306307413ac4c4309aa829161061c91610bdd565b833360405161062d93929190610bf6565b60405180910390a15050565b600154811061065a5760405162461bcd60e51b815260040161029e90610a72565b6001818154811061066d5761066d610aa2565b600091825260209091206004600590920201015460ff166106c75760405162461bcd60e51b8152602060048201526014602482015273141c9bda9958dd081b9bdd08185c1c1c9bdd995960621b604482015260640161029e565b600034116107175760405162461bcd60e51b815260206004820152601f60248201527f446f6e6174696f6e206d7573742062652067726561746572207468616e203000604482015260640161029e565b346001828154811061072b5761072b610aa2565b9060005260206000209060050201600301600082825461074b9190610c27565b9091555050336000908152600260205260408120805434929061076f908490610c27565b90915550506040805182815233602082015234918101919091527f0b5b4c52969ff7329ecf7ee536409fda87812b15a8622bc6e8cdeab3aee14a2690606001610501565b6000546001600160a01b0316331461080d5760405162461bcd60e51b815260206004820152601960248201527f4f6e6c79204149206167656e742063616e20617070726f766500000000000000604482015260640161029e565b600154811061082e5760405162461bcd60e51b815260040161029e90610a72565b600180828154811061084257610842610aa2565b600091825260209182902060059190910201600401805460ff1916921515929092179091556040518281527ffc534544f8ed1b516bf078b4ae88509d8f81f4fafefb10e9aad53e3e1fbce9bb9101610501565b6000602082840312156108a757600080fd5b5035919050565b6000815180845260005b818110156108d4576020818501810151868301820152016108b8565b506000602082860101526020601f19601f83011685010191505092915050565b60c08152600061090760c08301896108ae565b6001600160a01b03979097166020830152506040810194909452606084019290925215156080830152151560a090910152919050565b634e487b7160e01b600052604160045260246000fd5b6000806040838503121561096657600080fd5b823567ffffffffffffffff8082111561097e57600080fd5b818501915085601f83011261099257600080fd5b8135818111156109a4576109a461093d565b604051601f8201601f19908116603f011681019083821181831017156109cc576109cc61093d565b816040528281528860208487010111156109e557600080fd5b826020860160208301376000602093820184015298969091013596505050505050565b600060208284031215610a1a57600080fd5b81356001600160a01b0381168114610a3157600080fd5b9392505050565b600181811c90821680610a4c57607f821691505b602082108103610a6c57634e487b7160e01b600052602260045260246000fd5b50919050565b602080825260169082015275141c9bda9958dd08191bd95cc81b9bdd08195e1a5cdd60521b604082015260600190565b634e487b7160e01b600052603260045260246000fd5b601f821115610b0257600081815260208120601f850160051c81016020861015610adf5750805b601f850160051c820191505b81811015610afe57828155600101610aeb565b5050505b505050565b815167ffffffffffffffff811115610b2157610b2161093d565b610b3581610b2f8454610a38565b84610ab8565b602080601f831160018114610b6a5760008415610b525750858301515b600019600386901b1c1916600185901b178555610afe565b600085815260208120601f198616915b82811015610b9957888601518255948401946001909101908401610b7a565b5085821015610bb75787850151600019600388901b60f8161c191681555b5050505050600190811b01905550565b634e487b7160e01b600052601160045260246000fd5b81810381811115610bf057610bf0610bc7565b92915050565b838152606060208201526000610c0f60608301856108ae565b905060018060a01b0383166040830152949350505050565b80820180821115610bf057610bf0610bc756fea2646970667358221220a978fa55a794c8af4c5be7a0826cac8b1f78a7dc6c9f96024e8a82305661d19a64736f6c63430008140033",
  "devdoc": {
    "kind": "dev",
    "methods": {},
    "version": 1
  },
  "userdoc": {
    "kind": "user",
    "methods": {},
    "version": 1
  },
  "storageLayout": {
    "storage": [
      {
        "astId": 16,
        "contract": "contracts/helpi.sol:Helpi",
        "label": "aiAgent",
        "offset": 0,
        "slot": "0",
        "type": "t_address"
      },
      {
        "astId": 20,
        "contract": "contracts/helpi.sol:Helpi",
        "label": "projects",
        "offset": 0,
        "slot": "1",
        "type": "t_array(t_struct(Project)14_storage)dyn_storage"
      },
      {
        "astId": 24,
        "contract": "contracts/helpi.sol:Helpi",
        "label": "donations",
        "offset": 0,
        "slot": "2",
        "type": "t_mapping(t_address,t_uint256)"
      }
    ],
    "types": {
      "t_address": {
        "encoding": "inplace",
        "label": "address",
        "numberOfBytes": "20"
      },
      "t_array(t_struct(Project)14_storage)dyn_storage": {
        "base": "t_struct(Project)14_storage",
        "encoding": "dynamic_array",
        "label": "struct Helpi.Project[]",
        "numberOfBytes": "32"
      },
      "t_bool": {
        "encoding": "inplace",
        "label": "bool",
        "numberOfBytes": "1"
      },
      "t_mapping(t_address,t_uint256)": {
        "encoding": "mapping",
        "key": "t_address",
        "label": "mapping(address => uint256)",
        "numberOfBytes": "32",
        "value": "t_uint256"
      },
      "t_string_storage": {
        "encoding": "bytes",
        "label": "string",
        "numberOfBytes": "32"
      },
      "t_struct(Project)14_storage": {
        "encoding": "inplace",
        "label": "struct Helpi.Project",
        "members": [
          {
            "astId": 3,
            "contract": "contracts/helpi.sol:Helpi",
            "label": "name",
            "offset": 0,
            "slot": "0",
            "type": "t_string_storage"
          },
          {
            "astId": 5,
            "contract": "contracts/helpi.sol:Helpi",
            "label": "owner",
            "offset": 0,
            "slot": "1",
            "type": "t_address"
          },
          {
            "astId": 7,
            "contract": "contracts/helpi.sol:Helpi",
            "label": "requestedAmount",
            "offset": 0,
            "slot": "2",
            "type": "t_uint256"
          },
          {
            "astId": 9,
            "contract": "contracts/helpi.sol:Helpi",
            "label": "raisedAmount",
            "offset": 0,
            "slot": "3",
            "type": "t_uint256"
          },
          {
            "astId": 11,
            "contract": "contracts/helpi.sol:Helpi",
            "label": "approved",
            "offset": 0,
            "slot": "4",
            "type": "t_bool"
          },
          {
            "astId": 13,
            "contract": "contracts/helpi.sol:Helpi",
            "label": "completed",
            "offset": 1,
            "slot": "4",
            "type": "t_bool"
          }
        ],
        "numberOfBytes": "160"
      },
      "t_uint256": {
        "encoding": "inplace",
        "label": "uint256",
        "numberOfBytes": "32"
      }
    }
  }
}